:020000040800F2
:10000000A8040020010100082501000827010008BC
:10001000290100082B0100082D0100080000000044
:100020000000000000000000000000002F01000898
:10003000310100080000000033010008350100080C
:1000400037010008370100083701000837010008B0
:1000500037010008370100083701000837010008A0
:100060003701000837010008370100083701000890
:100070003701000837010008370100083701000880
:100080003701000837010008370100083701000870
:100090003701000837010008370100083701000860
:1000A0003701000895060008370100088905000897
:1000B000AD060008BD070008E90800083701000880
:1000C0003701000837010008370100083701000830
:1000D0003701000837010008370100083701000820
:1000E000370100083701000837010008DFF80CD09D
:1000F00000F02CF800480047B10A0008A8040020CE
:100100000D488047DFF83400016841F4E0210160C8
:10011000BFF34F8FDFF82800DFF8281001600A488E
:1001200000477047FEE7FEE7FEE7FEE7FEE7FEE773
:10013000FEE7FEE7FEE7FEE72301000824ED00E00E
:100140000CED00E00003FA05ED000008064C074D39
:1001500006E0E06840F0010394E807009847103497
:10016000AC42F6D3FFF7C6FF4C0B00086C0B00083F
:100170002DE9F041DFF8C4C0314B604503D19C69E3
:1001800044F400649C614FF08046B04203D1DC69C6
:1001900044F00104DC612B4DA84203D1DC6944F03A
:1001A0000204DC61284FB84203D1DC6944F0040446
:1001B000DC61838943F0010383810F2900D90F217A
:1001C000224C4FF0E02360450CD12261DFF88080A3
:1001D0004FEA011C88F800C0D3F800C14CF0007C45
:1001E000C3F800C1B0420DD16261DFF864C00E01F6
:1001F0000CF1030C8CF80060D3F8006146F08056D7
:10020000C3F80061A8420AD1A261114E0D01361D4A
:100210003570D3F8005145F00055C3F80051B8428D
:100220000AD1E26108010A49491D0870D3F80001AA
:1002300040F08040C3F80001BDE8F081002C01408F
:1002400000100240000400400008004000000020B0
:1002500019E400E070B5194C83202060002565602A
:10026000A56017486060012000F044F86168084309
:10027000606014490D60086840F002000860206862
:1002800040F48030206020688003FCD5206840F076
:100290008070206020688001FCD5606820F0030039
:1002A0006060606840F002006060606840F4800058
:1002B0006060086840F01000086070BD00100240E7
:1002C00000841D00002002400048704700A24A043C
:1002D0000549064A884202D00549884201D11046A4
:1002E0007047104670470000002C014000A24A04ED
:1002F00000340140012804D0B0F5807F03DD0121E6
:1003000002E000202CE00021802801DD012200E035
:1003100000220A44402801DD012100E000210A44B6
:10032000102801DD012100E000210A44082801DD38
:10033000012100E000210A44042801DD012100E040
:1003400000210A44022801DD012100E000211144BE
:10035000012801DD012000E000200844C01D00014B
:10036000702800D1002070470121814001480160C0
:1003700070470000140801400121814001480160DC
:1003800070470000100801400121814001480160D0
:1003900070470000140C01400121814001480160B8
:1003A00070470000100C014001218140014841616B
:1003B00070470000001001400121814001480161A7
:1003C0007047000000100140F0B53B4E3B4CB0427E
:1003D00003D1A66946F00406A661394EB04203D1A6
:1003E000A66946F00806A661364EB04203D1A6695A
:1003F00046F01006A661344EB04203D1A66946F01D
:100400002006A661314EB04203D1A66946F04006EF
:10041000A66100240F2900DD0124692A01D0492AA0
:1004200002D1032B00D10124032B00DD0124692A12
:1004300006D0492A04D06F2A02D04F2A00D00124C6
:10044000692A01D0492A00D100256F2A01D04F2AFC
:1004500000D1012503260222082915DA076802EBDC
:10046000810206FA02FC27EA0C070760076893403E
:100470001F430760026889008E40B2430260026831
:100480008D402A43026015E00839476802EB81027B
:1004900006FA02FC27EA0C074760476893401F43AF
:1004A0004760426889008E40B243426042688D4096
:1004B0002A4342602046F0BD00080140001002407F
:1004C000000C0140001001400014014000180140E0
:1004D0002DE9F0410D4604461146204600F09AFAF7
:1004E000032707230626681E4FF0040C012D01D0B8
:1004F000022D12D1218BC20007FA02F2914321830F
:10050000228B0CEBC00103FA01F822EA08022283D5
:10051000228B06FA01F10A432283032D01D0042D18
:100520000FD1A18BED1EEA009740B943A183A28BA6
:100530000CEBC5018B409A43A283A28B8E403243C1
:10054000A283228C012101EB800301FA03F39A4379
:100550002284228C800081400A43228406488442FF
:1005600005D1B4F8440040F40040A4F84400A08D44
:10057000401C80B2BDE8F081002C01400149088098
:10058000704700003C04004070B53B4908883B4C74
:1005900082073B4DA4F12006A4F1800018D50A88FB
:1005A00022F002020A800178012901D1006A804705
:1005B00028888107334802D40088208003E000881F
:1005C0002188401A3080288880F00200288070BD81
:1005D0000A88520718D50A8822F004020A80417856
:1005E000012901D1406A804728888106264802D423
:1005F0000088608003E000886188401A7080288845
:1006000080F02000288070BD0A88120718D50A885B
:1006100022F008020A808178032901D1806A80478C
:1006200028888105194802D40088A08003E000884A
:10063000A188401AB080288880F40070288070BD9E
:100640000A88D206FBD50A8822F010020A80C178F7
:10065000012901D1C06A8047288881040C4802D44E
:100660000088E08003E00088E188401AF080288854
:1006700080F40050288070BD102C014080000020C4
:10068000202C0140342C0140382C01403C2C0140EE
:10069000402C01400348018821F0010101800248FB
:1006A00000690047102C01400000002070B54FF099
:1006B0008045288AC10740480AD0A989C90707D0C0
:1006C000298A21F0010129824069BDE87040004774
:1006D000298A394C8A07384904F18804A4F1200694
:1006E000497916D52A8A22F002022A82012901D1EB
:1006F000006B8047288C800702D4A88E208003E0FE
:10070000A88E2188401A3080288C80F0020028842E
:1007100070BD2A8A520716D52A8A22F004022A823C
:10072000012901D1406B8047288C800602D4288F94
:10073000608003E0288F6188401A7080288C80F0E8
:100740002000288470BD298A090717D5298A21F03D
:10075000080129828179012901D1806B8047288C89
:10076000800502D4A88FA08003E0A88FA188401A3A
:10077000B080288C80F40070288470BD298AC90656
:10078000FBD5298A21F010012982C179012901D1E3
:10079000C06B8047288C800403D4B5F84000E0800B
:1007A00004E0B5F84000E188401AF080288C80F41D
:1007B0000050288470BD00000000002070B543493F
:1007C0000888C20742480BD00A1F1288D20707D0F8
:1007D0000A8822F001020A808069BDE87040004763
:1007E0000A883B4C3B4D04F190049207A4F120068B
:1007F00018D50A8822F002020A80017A012901D163
:10080000006C804728888107334802D40088208004
:1008100003E000882188401A3080288880F0020098
:10082000288070BD0A88520718D50A8822F0040271
:100830000A80417A012901D1406C804728888106CD
:10084000264802D40088608003E000886188401A4E
:100850007080288880F02000288070BD0A881207E8
:1008600018D50A8822F008020A80817A012901D16C
:10087000806C804728888105194802D40088A080B0
:1008800003E00088A188401AB080288880F40070B6
:10089000288070BD0A88D206FBD50A8822F0100293
:1008A0000A80C17A012901D1C06C8047288881045F
:1008B0000C4802D40088E08003E00088E188401AF8
:1008C000F080288880F40050288070BD100400401B
:1008D00000000020200400403404004038040040A0
:1008E0003C0400404004004070B543490888C207FA
:1008F00042480BD00A1F1288D20707D00A8822F07C
:1009000001020A80C069BDE8704000470A883B4C7C
:100910003B4D04F198049207A4F1200618D50A88EB
:1009200022F002020A80017B012901D1006D80477B
:1009300028888107334802D40088208003E000889B
:100940002188401A3080288880F00200288070BDFD
:100950000A88520718D50A8822F004020A80417BCF
:10096000012901D1406D804728888106264802D49C
:100970000088608003E000886188401A70802888C1
:1009800080F02000288070BD0A88120718D50A88D8
:1009900022F008020A80817B012901D1806D804705
:1009A00028888105194802D40088A08003E00088C7
:1009B000A188401AB080288880F40070288070BD1B
:1009C0000A88D206FBD50A8822F010020A80C17B71
:1009D000012901D1C06D8047288881040C4802D4C8
:1009E0000088E08003E00088E188401AF0802888D1
:1009F00080F40050288070BD1008004000000020E6
:100A00002008004034080040380800403C080040FE
:100A10004008004070B504460D46194919488C42FB
:100A200003D1816941F400618161B4F1804F03D148
:100A3000C16941F00101C16113498C4203D1C1690F
:100A400041F00201C16111498C4203D1C16941F0F9
:100A50000401C161FFF738FC06462046FFF738FC69
:100A6000B6FBF0F0B5FBF0F0010C4A1CB0FBF2F065
:100A70002185401EA085A0841120208070BD00002B
:100A8000002C01400010024000040040000800401B
:100A900002E008C8121F08C1002AFAD17047704747
:100AA000002001E001C1121F002AFBD170470000A5
:100AB000FFF7D0FB02236F2200210A48FFF784FCD6
:100AC0004FF4347203210848FFF702FD41F69811F4
:100AD0000648FFF79FFF064A02210448FFF748FB3C
:100AE00000BFFEE7000C0140000400400008004089
:100AF000F50A00082DE9F04F104BD3F800C0DFF8DD
:100B000040B0DBF800A0D44511D00E4A32F91C20C9
:100B10004FF400410A444FF05B07B2FBF7F20A4C76
:100B2000228010460CF1010CC3F800C001E04FF028
:100B30000000FFF723FDBDE8F04F7047A400002040
:100B40006C0B0008740B0008A0000020843600081D
:100B500000000020A8000000900A00082C370008C0
:100B6000A800002000040000A00A0008881500006A
:100B70005B00000001E5BA50C6FAF32A40A4D8B5DC
:100B800063747EAA6430B03F0080F233D15892B0D3
:100B9000EC1197146594AA4B68EF38E32C6064ACB1
:100BA0006A3861132BE42A53B0A933E6791A24C8B2
:100BB000452051F7C6E53F3EF9CCC0F1774CFBC369
:100BC000FE1ED95953D861EA4DE46E0F3D1ED4DEA6
:100BD00096067FE5F9E5AC1568C2BEF795496FCC7E
:100BE000A50DBD546FF40F2084CD60D79B3FDFA9C6
:100BF00020081154F9CFE5F2B60E38F9F300FAF3F4
:100C00004C15C336E5DE82016AD0CCCA0D517FF89F
:100C1000EC10972BA9BC81DB1E26D2D2DAFE342041
:100C200041CBAE493F137AA7B5FA72E8C2F8F5375F
:100C30006BF57FF9B71D93E86F378FFEC0C7A24AE7
:100C400067DDBFF42615BECFB53FE4FAABDA3C252D
:100C5000230C59FAA1E3FFC2E92115ED6FCBCF7A3E
:100C6000D4CA14EE4D0D4DA2FF7FDFFE19D87B785C
:100C700009BF24DF56F36BF3CC346DBF3FD6FA3394
:100C800036C493D53A2C62CE8640701BE4CE5166B2
:100C9000689C6500C446B3AFF44FEDC84DD0B3486F
:100CA0005306841F75D56FE38B27C6FDC2109E1DAA
:100CB00001D065FCD61348E57D4441E167C92408AD
:100CC0007CDCDE2DC5ED93FEB0157CDE8E0447186E
:100CD000F011FCE9D5F140BA6F1FB3317CA1FF18C8
:100CE000CD404CD22AE8465B61D29CD0CD5767B646
:100CF000F609402759E54E1D72FB1224D8C9D1DBF5
:100D0000902200EABC03130BCF0D27FB44137DF1A7
:100D100045F74318FBDAA3EE5DD08726013D0BC9EA
:100D20001D15A025430141CC72FD623AFDCDD905C8
:100D3000060A3E068B25CCC7A9FAA939F9FA799893
:100D40002848E5490B9C223F56B5C9ECE84EB6B899
:100D50003F2C88F86F0DC5AD181AFF7F4BAEAE362D
:100D6000F5CE3602D904B3DBE35476BC492356E012
:100D7000D7FB0A21FBB0563478F342F2501548FBFA
:100D800069D4192C9F1896AFF87B6ABC4BD9366C86
:100D9000C5C3070908EFB1FB76D0542CF50C1EBB78
:100DA000454D5FF120F012F9820098E6F10C9D0AA2
:100DB00051E27B3870F0F1F863061BF6BF09F0E4EE
:100DC0002D085F07C7F49A2FC7CB800B023575C07B
:100DD00098FC0EFA85F271EE583F9109E203612802
:100DE00087BD6401C5FE77F7C1ECD80AD7F982EC5C
:100DF000462FABDCCF0F381062A3A411C224D7CF8B
:100E0000AE0D1D2B78DD34F79C3B03B3F90C473F47
:100E100047AE9D0EC72338F657F1822967F4E3E900
:100E20001A1361D3AC2B871155D11E13940D8BE689
:100E300011285C1678C81E2828F7ABC53948DE0390
:100E40001FCC2A13501402F57BF90016FEF657F159
:100E500031DE2808630A17F66830DAEAD50362F64D
:100E60002DF24208F5F6AA2198BCC2F9D51C5C0007
:100E70005F06BEE5B02DB6CD82E9642FCCF0E10867
:100E8000C4193FFD8CE0BE3B43D4A1E0A2480BC790
:100E9000B7091AFB54132A2C7FE37D0688F89314B4
:100EA000DDDB380EE51E10C605124609A2DF9C11D7
:100EB000741ED9C57612F31565C0403ABFF48BFF96
:100EC000E3114EC7B53A11E8BE0E9E307BCDD30F6D
:100ED00059E4E6048C0F5FF3292DB403A6C9D61597
:100EE000571D1BCA373CE7EA70C63A304BEBAE1EC3
:100EF00041F54DF848FE62E1302076E8AC15FA097C
:100F0000B20A0E108EC17E14A21CA3C5D200E72720
:100F1000D1C2BC2FAE1F26D6A63596C56F0C901039
:100F200030E0E241AFD91DEFF63347ED8AEC94266D
:100F3000D1EED1EC0A0D6DFE2A14C4DA350AA50EE5
:100F4000C6E67C0A84F8C8060001911DB1FBC2B94F
:100F50003824141814C5513AA10C78B5052985F226
:100F600099F55A1F59D3C41C3EF01DEBBD3FD0E08C
:100F70000DFF620B72D39CFB280917209109E5F144
:100F8000822D98E6F4D26A4F7AE98DDF1320FADFDA
:100F90003A1939092918380E8AC1F90D41F6BDEA06
:100FA000972996F2A3EF16105BF3CF0D21EC3FFFCC
:100FB000FC2A82AAC101CF0E7EC0E546E5079DDF6F
:100FC00019FFCCDF391C1E11D7FC921930E360EEFB
:100FD0008616E6EFE7FE0B068E0388F53CE49327C2
:100FE000660C58D7472A15EA1DD7CA3E44FC4A0763
:100FF00035064BEDA4FE49F5D73C1F0B34E45125D3
:1010000069EC81EFD229A0E5B30587FEE6C478320A
:10101000B3092E00163BA1CE32D7A10CAEF696072F
:10102000D7258B10ECCE77F79A3010EE26FDD30F34
:10103000D8C84E09181996F0241D02F530F523F989
:101040008AEDDF14EFEBD3F869FEEAF16F209FEB36
:10105000DC0D982629AF8507A025CBCE8531F0126F
:101060001BCABC190B082BE5B4182808B2F9E60214
:10107000B2F6721047002EFF730DCAFBA2F0F6F114
:10108000451FC1FE8BEA021E96DCE7E70128AFF0A0
:101090005CFF331481038BFECDED97008A0253F180
:1010A0008726FE1D09E92614AFEE65EBF8FEB8EDC4
:1010B000880A44F98D1C3A1743E949F88E031EFE4D
:1010C00073F9FE0BCD0247EDD006CF0EB6F80A0B32
:1010D000C40439F1F8FC71EE11FD390B52F5E82228
:1010E00090F7DDDA512415ED47EE681850FF53F103
:1010F000300B37144FF01404BEFBA2F371FF20062F
:1011000092040800511080F4C3F32CF443145014DB
:1011100007DEFB1672FB73E4B402950AB71CD0E03D
:101120005800340E65FC11153D09CBE16CEF9B179F
:1011300085DD730EB015C2F94BEC91F33D2037E914
:10114000D601B8186A0D4ADCDA02470259FAFB2EBA
:1011500037E9FA06EBD49DF7E51EC3DF2323DBFC5A
:101160009AF3020CC9FFB5FA51F8340E45F6191579
:10117000ECF9C0F08E1931F39D0C61E88CF6121079
:101180009F03BC057BF7F50D4FDA56080D1244FCA2
:10119000570649E33C0F3601BB07D80A85F17004B6
:1011A000CAFD200802F6D3112E03AEE2BE1080F570
:1011B00079053A048C0CC4087BF8D2FCDCF67A136F
:1011C0006FE10F1CCC0759E8021F72E5C502AB05A1
:1011D000A9F8E4FA61FFEA030AF6EB12F608B70889
:1011E000C3E036ECDB125EF63E1925EF61FDEBFE47
:1011F0008A04D227F6DB520C0AE335F01F200F0ACF
:10120000CD182CE20C018FFF91F541F7DA1875002B
:10121000EFEB4E20F2DD1E138A041DEDF61BFBDA08
:101220002E027AFF2D06BB1D94FC43EC7AEBEF17E0
:10123000FEF5BE103E05F4FB860259E87D1768F006
:101240003E1AD0F5A7EDD61350E96A260EF7FCFE3C
:10125000D2006FCA83119120670837FEF4FEF3EDC8
:10126000BC044703E5F38519B9D53B163D0AB7F42D
:10127000602DDBCFBC032BFA76FF9B02A4FE24205B
:101280005CFF71019FEA4E08C5ED96078009B6F52F
:10129000BF0C66E3DC22ED0862F74D0C36C4951EE8
:1012A00098F9F8FF842228E1662506CAE315B5FE01
:1012B000AB18510D2CB6DE4098CEB4410AF8AEF30F
:1012C000322E809F751643FED020941133FE05E91F
:1012D000F1DF7E13B0002F3BF9F90AE14BEC0CF083
:1012E000BE0D5B1A0E2220F0A8FEABC73CFA741D9F
:1012F000200A543DF7D547EA95F4AE09F9257A144A
:10130000EBFE37D4A0FB03DB8E17BD16990BA90D9E
:1013100064D861FF11EA5D127C1F5B08210116D1C0
:10132000D8F4A1F9181C741EBBF4CB0C6ECF3F028D
:1013300016117406BF1D0AFAD7F8FBD90511B9E6D4
:101340006419DC3715D5FF0549E178F5B415B81AED
:10135000EF146EE865FD24E0D40B5D134A0A6017B4
:10136000CFE31D04DCE0F6050B1D0A0BFB16B7DB13
:10137000DDF147EBC113FB1AEC11B9FE33D23F018B
:1013800064EF8A150D272FFE0EF9D3E443EC09FC18
:10139000F61DE314570484F472CF43028310AE1F8A
:1013A000541550E9FEE0A9E20D148C0F652A640281
:1013B0005AE1EBECB6E3FF1B0A0D7C1EFDFA78DE6A
:1013C0002DF180F4BA23340D3A1712E2EBD58E05D5
:1013D0002600C432990D2FFDC7DF05E5C6126C0447
:1013E000B527DBFD5EF726E96DEDAC158104C2245F
:1013F0003CF811EA19EDD1F0421BF90DFB1AEAEFA6
:1014000025EDC4EEE0F8152A54FEDC0CEDF3FCEB00
:10141000A5F896048F12A800AF1C77E10FF4EA0438
:10142000A2F2891BE00EDBFD0DEB02F5D3FBAD1044
:10143000E714D7F80403B4EA01FAC0076000921970
:101440008DF371FF35F32CF5630A5C02BD148DF248
:10145000BBF5BFF59D0D59FC71013311F0FB180769
:1014600011EB2D0423FBE00DB30883E4BA0E8CF6D8
:10147000D8F3FA1B970285F261FFC6FA16FBB51086
:101480007901DBFD5A0971EDF204A8FFD30EED09D5
:10149000DEFFF8FEF3EA800969FE2E1775002CF8CE
:1014A000D4F6F3ECF50D680483104B0497EAD6EB01
:1014B000FB01800CDF117F0E4CEAB8EE9A0423FA90
:1014C000F317790530F5A8FDC4F2E2009B03471736
:1014D0002CF8890630F458E9CA10A4FE831153048D
:1014E00013F4BBF33CFAD4097F0E4F01B6F595F324
:1014F000E4F8D907EF13D6007EFD11004EF4AB03DC
:1015000040FC170D9E07B804FEF43DF467082AFE60
:10151000200A7E0190FAD0F5E3FD05FD6F0D670806
:10152000B5FC48FC49F8B00104FF31056C043E03EA
:1015300006F9F0FC23F974069D0B15021AFEA5FBB3
:1015400063F5FCFF340CD3FBBF088CFA61FC27FC6D
:101550008A049F003202350AB7F20800E0F7DA0089
:10156000E00D3105FC0065FC46F17EFE7409DD07E7
:101570005707B9FC55F8BDFD1AFB9300381044FD20
:10158000BD01DBF902F84205380C07073BFF74F494
:1015900053ED2D07CC07620F81045FF27CF55B05EC
:1015A00011FEB3081B0E9EF3970087FAA5F7780982
:1015B0003D0C7A00C90089F39EF1AB04120D730A49
:1015C000DE0252F401FAC003D6FE280B09FC65FEC8
:1015D000A5FB69FF420569018E047101D1021CF16E
:1015E0003CF9B0024A0A1E10A4FE03F3A0FB66FAFF
:1015F000C904FD0C16FD06F9E3FB87FD1D033D083C
:10160000BD004A0622FEE8FA27FBC5FE8E02FE094F
:101610005705B6F6CBF977F6060E280BA4FFDCF7D4
:10162000DBFB9F01F303B0010EF771FF10EE4BEDF2
:101630007EFF1006441080379230351EC00664D7F6
:101640005DE7A5E30BDFBCEE88F53E07800AFF1AD5
:10165000BB1D18F3C8F3000056F6E7FF541403F15E
:101660003CE68F1159F9D007380D12F9DD08231027
:10167000BFF57AE89A0413F3E908AD0F1BF5EE0302
:101680002A01A2077103B9FCBEF70CED6BF5250426
:10169000F207010E8E164DF80400CAFB00FED8F5C5
:1016A00012FCCBF564EF0A215EE4A13AB9FEDFD16A
:1016B000A61E03DC8600D3FAEA06B9FC4A1D4219CD
:1016C00049F77AFD9DDF5207C2254CD147EC1F0C2C
:1016D00093E78D4961FEA9F90B0725EFC2E4FAF102
:1016E000B5FD94F86C30F3EE78201C09A7F062F792
:1016F00074F188F751FA33FD8AEE5635E80FB0FFE2
:101700004B02CBE1AAF32B12EEF2B8021C096BF7E5
:1017100044103A0206F85306000079F0FA094CE842
:10172000300BE314BF08410CD4F65DE573F64F1798
:101730000FF6B81626FEECF84D0F1002CCF43A0462
:101740006AFC23FAB70696EE85053A05A207F0FB78
:10175000C30903F2E200670737FC740966F7E70084
:10176000DFFB6804D8F6EE035EF9E711930045F855
:101770007C07F3EE5E0C0304F5F67CF2200A011000
:10178000FD0CC3F641F4AEF376FE3B0184F61A106D
:10179000390AB309630847ED0CEEAE0CF9F79C0F5C
:1017A0004CFF9AEF2D0831076B0B6002CFFAEAED80
:1017B0000BF3B9FBA90D7407900C1C059F0292F165
:1017C00049F841F551FB701C0EF99B0376FCA8010A
:1017D000170B3A06E1F336EB82FE7904D907EB13D7
:1017E000E1072CF8A80092EE4DF724F50001210244
:1017F0002F0F890654FD670958FFAF043AEC34F601
:1018000033FB69015D141C0866F9BE0E4AF2F0FC58
:101810003604D3E431078009AA0851FB8F0040FC4D
:10182000E00DDFFD78F16C0483FC3605D30E630612
:1018300015EB060A5FF3D2FC9D0B9EF293FD700838
:1018400043FEC101BC044AF29C126FF6C00448106A
:10185000C1ECCAFD2F10D3F9AEF8611227E4D2FE15
:10186000BC1A17F8C6FABC060B08B5FBB5E7F300BF
:10187000F90F24F4020A501469EC4AF3C81B49F525
:10188000F0F95706FBED3202380D371400FE81EFF8
:1018900081F11914F3EDAFEFF9250DEB1005561E8C
:1018A000B7F4B4EEFC0015FE170ACCF3FDFBE3130E
:1018B000B0EB8B10071AF2F163E0E107A30481F0AB
:1018C000E108A4FFB31B7EFEE6EF1612BAE1A607FD
:1018D0007B0E53F165FD59FB7119F1F86F0B92EF17
:1018E00074F43BFDBD01391FE2D9BE109607C10259
:1018F000D80880F394FBEDF7660C4AF3100617F84E
:101900009B036419DEEE6BF773F7DB12E50723FB2D
:10191000660D9ADBD10453051B0C8FFC77E2FB1894
:101920001004A50F7CF5F0F92CF35207B51459E813
:101930002BFBCDEFFF1AA20A0DFEBB083DDFEE0523
:1019400033131FF99EF2260074083D0B59107CDFFB
:101950004607E8F800FE0622C7E1821546F1761434
:1019600090F7CAE79C138FEBE61737D2A5370EFA2C
:10197000B8ECAB317BCC0B1E8BD232014B1AF4FD91
:101980005C00E5F3E83AF8E903086DC08D09C62468
:1019900090CFE04EB2CABC18CFFA8EED29193FC0E5
:1019A0009C3EF5CB513AB0FF29DB4D2312D0A53A2E
:1019B00022D25F1CA6DE4011C70B2DDCC63D78B4D9
:1019C000EC50DAEAA7EE3BFCC7DFB73451CDCC1DB3
:1019D0000ACD2918781FA524174C669062F988CD86
:1019E0009206613D130B53306EBA990DE5C92A1367
:1019F000402498E339348CB969282FFBDA01290691
:101A0000E2EE02F4FEDFB24BC2BC9C2541F434F896
:101A1000594FDFA8332832D9B4EB1F367C0B1E1286
:101A2000E7C0840B85F36A3CAF06B2E05D14DFA823
:101A3000B42DECFBB819B6F92EECC52BAFEE732321
:101A4000DAC03A189BEA5303B6247BB888244608C8
:101A50000235060A6DD5E5DDAACAD12EE40B871042
:101A60001D04D0F2DD30E7E8BC0643EA4ADE9F03FE
:101A7000AB06E909A9F85539F302AD105ACABFDF20
:101A8000C21027E54F2E2DEEEF00F1F66B21C81B9B
:101A9000FBD9EFFF13DE8710E1F282019C2528F5C8
:101AA000222AA1F7F7EE45DFB1E683244EF5201C8C
:101AB000D9EE4A088A1799F4DDEF5DE6F00EB8EB2F
:101AC000851AF8EA911CD506FCE8BF4AC1BD7AEA3E
:101AD000FE0897E9792CDBF98CF71D198DF527FCA9
:101AE000A910E9E07EE86A2384E065291B0DFAB2BB
:101AF000AB4591F5BC021F0F21DAC9EEEFFF680379
:101B00005815662537BEE8234B00B3DBFE2113F7DB
:101B10004BEB241D12FA3ED9F93AF8E80AF7262AC7
:101B200016D026FEAE1FD4DD313096F1A2C7633148
:101B300043EB48FCF93813DEDFE83326F3C24F1BD2
:101B4000EF16DCE05A1F5C009BEB060EDE029DE305
:101B50002F28C2D1A2F5673584E1CB0EF538FBC240
:101B600054EC622224C72627E311ADE5A21EE6EC61
:101B700046EFAA35B3DC90F94E1C9AC416103A2EE3
:101B800055E3D615B4190BB48820D1EE9CFB3C2349
:101B9000A9CFCD18340EA1F79E098B27C4C618040F
:101BA000631C0EB8472EB20B14F29534B1E4B1E7C2
:101BB000240BBAE5EA1A8310C6D08908882132D8E6
:101BC000082CA20A00BE8B2665FC1404440F3CE6D8
:101BD00048FD7A1475EB0B08501554D3222A540192
:101BE000B1CFC92B76FC44E4A429D6EC0FE02C201D
:101BF0005EF5A415170A60C2AA1FB309D0F16B34B1
:101C00004DE299DFA412ADFDDCF43A1BE5F2A7ED3D
:101C1000CB21E2D9B3082D1AF5E1C625CEE9CAD306
:101C20009A3214EEA6082A2A0ACBE3E6F7154E06E6
:101C3000A3040B1DBBDE9DF92F1128DEB528D8F4B7
:101C400081F1152C85D901E65924F0FA0707CC1B40
:101C5000C3CA01FAD51C06F9E11BEFEBBBE0C720B4
:101C60000AF642069D20D2D2F6F2A21D6CF2C10104
:101C70004C13D6D79717BC1934CC9312F2F15EF9F6
:101C8000A61D29EFAAF5461A712C340B9EF397D6A0
:101C90009B02B7F11DEB8D346AE675EFD00994FC19
:101CA0004B1921052DF2C9FFC70A05CF351C120FAC
:101CB00013DED049BBDE8AD89F2C2BE4C2F8B926AC
:101CC000B8D97CF2A92643EB3D1FEA0367C9762603
:101CD0003E048DC7CC1FAB04F3EC5C2D8FE733FFC4
:101CE0006732E8CCB3F3E7166DD7CE13E00F35F4C7
:101CF000862C4EF48CB86332CF100ACFC02D6FE023
:101D0000C5FF1C31C0DA9C0F941125D87408AC01B2
:101D100074DC5E243B1412E5FE1F6DEB9ADDC52CCE
:101D200022EAA0FDA719E6DBE00D0B1B5BF33C0DDF
:101D30008AEB45E23A1B07F446083A1B81F198FB0F
:101D40009E078AEE5DFAB51190F74302A0FFC4EE3C
:101D50008D078D1EE1057CF512E577F8800817F4F4
:101D60009A1B58006AE5BC1830F7AEF5BF1FC2E7F2
:101D70002BF95E0D3DF32FFC0F0A76FDEA03520CA2
:101D8000B3DDF315520A49E4251924F15CEBB018D0
:101D900076FE47021805B2F6DE026EFD12FA3F012A
:101DA0004E06F7EDAC17EFFEC1EA531B8EEEEA02CA
:101DB000B110C0DC7EFF0926ACEB7E00E80EA9E482
:101DC0009713EB126FE1F41073F546DDC12AB5FEEF
:101DD000B803AA0CE3E764027406D5ED25051F0DD0
:101DE000EAF0840A09FEF701A0132BF94AF3F4FD87
:101DF0002BE407055524F8FBCD0037FFC6E59F030C
:101E00004413A7EC7610F4FB32EC4B17F8FBA0FC64
:101E1000410C03F32FFC6EFCE6F0B81618072FFAFE
:101E2000C1FE1101B7F4D103D506A0FF29051AE4BC
:101E3000DC0B5B05E8F9B1129F0030F98E0405E96F
:101E40007DEE9825420681F1F10ABFF6FDF7B1114A
:101E5000A9F8FCFF0EFAD0F13D0AA90D50FDE3FEF2
:101E6000A0FD91F2170B99F46806730D14F1D104DB
:101E7000E4F83DF6F3175DFE8DF2F41325EF24F13F
:101E8000BF1EB9FC47EC3F13C7E300FE41221DED26
:101E90005F08E202F2F0D007C404D9EE0707DD07BD
:101EA00051F8680527FC58FFA50E76FDF6F4AF043F
:101EB000EAF12C094F05BEF8910A34F99F02300C63
:101EC000B4ED7CF3BE10D4F43506481470F142042E
:101ED000FB0566E56709D40BABF0BB0B21057CF471
:101EE0002EFF93003D0C980EABEEE1F491F58FFDC3
:101EF000FF04730C030594FB1501F9FA7A12CBF574
:101F00005802AF04F6F34AF1D1EE6A11641AB11126
:101F1000C6FB3B001EE6FEDF590F9C1180F32A0230
:101F200057059204340FDE0312F9CAE83AF0F9F8C3
:101F30005C15F8119D0C4B0527FC4CFC7FE4D8F791
:101F40005C0346F1AF08AC15CEFCFB1911FE09E6A7
:101F50000C0208EBA1F671167A0026FF9F18A70263
:101F6000E3FF61FBF4E7DDF10304A8FDF10A3D0B9B
:101F7000C903031927FC81EFC8F082EBEB01400F86
:101F8000C5014B04240BEA02F60537FF76E9A1F7F9
:101F90006EFA23FBAF1DD8F566F9751978F5280898
:101FA000FA0907DD840AD10196DA181AAC1644FB47
:101FB0004608E50990E40AF90E0D70F158FF5EF647
:101FC0007903B4041B0B741C5DFA3FEBA0FDDDF03C
:101FD00091F408179604E3FC1B0AD7F9BEF8D00663
:101FE000B306E204E5F27AEACEFC3D098505E11C80
:101FF000FF0403D9EA035302EAED910ABA0C94FBF9
:10200000B1123B120EF852F6AAF6F9FAD2E911E72C
:102010001113AC13CD020F20E3FE22E80EF90EF7E8
:102020001EFD8FFED103AB03F8FDBC05BB1C22FCDB
:1020300053F03BFFD3E4B2F548104E0AA400660CFF
:102040005A0A56F565FF9CFE2BFC1CF3C8F37C0B6B
:10205000A6F5410C5A20C0044EF492EE20F3B1FBD9
:102060002A023700230C63F5FB01060BBB087B0D2E
:1020700085F32CF59EF49B018FFF570761FC38F622
:10208000B514A607B7F377F8A2F20AFA900F97FEF5
:10209000E6022D05D6FFF8FFC80523F941F3AA088B
:1020A00093FDE2038D07A6F215FFC30C74F29300B3
:1020B00076FF000187FCAFF2D51AFBEF4AF3301F21
:1020C000DCF4B900AA0C78F359F973F8A10DB9FF43
:1020D000B5FBDC0D29048EED01FAEB1277F88CFAD2
:1020E0007BFB1EFCB2F77118C70CA6F3F30166FA6E
:1020F0004DF9DAFF0B0946F3EA03F0FC880A3BFED0
:102100000FF6A10E2FFDD3FAE9F4C7F502F8D216A7
:102110003F1433FD24F42A02F4FAC4065B0563F489
:102120001FF817F8811B61FE82FFC5FF9B016AFA49
:102130004AF368047BF742068C0C2D06A6F31C09B3
:1021400000FE6401BEFA72E982016709F317140701
:10215000790202F428F53EF1CAFA33FD9B014C11D5
:1021600097FE2F0F11FD02F7E0F990F85AF8A4FC42
:10217000F61CAC141AFE5DFDB7F1E7E916F97EFF17
:10218000130CC6FA9108FB1998FBD4F64EF133FEF6
:10219000ECFBC3F63909410B680335096C038CF974
:1021A000A4FD0EE302F7C6125A0BE6016D010910F9
:1021B000A0FE0EF853F017F7D7F950FE6511180777
:1021C000D80A27FA05FCC100D1EE08014302F8FE47
:1021D000ED0A1AFD18065E0B6EFA87FEEEF11BF78C
:1021E0008A00E7FF5207C0078FFC0802F205FDF9DD
:1021F000E3FC53EF670A3E06D5EF8FFF340B2C0D3F
:10220000A1F94205C4F15BF2DD07BB0B8DF454E983
:10221000042ABB1E42D9B9D1292DDE2E92DBDFE57F
:10222000AEF7B511EF1363F251F853063E06B3F162
:1022300003F1CC1DBB0A18F36EFB5BF092062A1566
:10224000790265EA5DFDA3011D02170AEDF3A90DF0
:10225000520844FA14EECDEB841FE9092CF8EA0485
:1022600018F2C4EFE109681837FF3F02FFEDCEFE18
:102270007FD102B8FF7FF8500080FBB0FF7FFF7F67
:10228000008000806B61FF7F340B00801C09006DB3
:102290001CF3C807A58FD2FCFF7F99E106CA29DA93
:1022A000C9155D527140CA910080FF7F9534FD9041
:1022B00048128FD3B93D7F25B6E2A2B2B621A25F04
:1022C0000080F0282032E8B94D3680F616F906DF96
:1022D000E932C3F68EB0FF7F02CA3BC08A2E92D786
:1022E0000C30ACFE000095CC4E1DE729E1B2E15D5B
:1022F0000DD426BFD54678F533FB77E3E91F0A0BEB
:10230000F4FC1C057BB77A284E1DD8F3BF09BFE04B
:1023100065FC1C09C03120F069D305258DDF430021
:10232000FA1CF1F5570472FDED08F0D1AD25EA1A5B
:102330003FBE4C3F8CE4A4D5A32C06F76E0EADFC3B
:102340004D0FF8D271FF3B41F9BA59268D06FDCFEA
:102350008B2646F3510D6FF4A90EEAF1CAE95F1D11
:1023600025DB252F1F0CF7D7D904020BFB017AEBD5
:10237000851CB3DAE2003F28A9E35815F8FD91F671
:102380002EFFE203ACE945F5503F56DF03F0BC30C9
:1023900010DA43ECCA1334F66F0C070796F08DF38E
:1023A000DC1F1A13B5D0951DFADEC7F4373FE0E104
:1023B000CF0C9DE3800CA50D71EDC128F9BA510D2C
:1023C0002B23EFED211608EBDD08BFF2FE094B00D1
:1023D000C2E47721EFEB4302A31631F015FEB60BF2
:1023E0006BF3FAF1251A71EC85F0CC1F200847EA4F
:1023F000A608DA020EE51222A40022EA4B17F6F331
:1024000008ED510D410B7BF8BDFE27FABEF8EB003D
:10241000AD110801F1F4890751E5EB16E80CFAF467
:10242000CF0DDCE35A0CF0F90C02640492EF0621A4
:1024300010EFB5FA61FFF1F48C0F9F0189062EEBC6
:10244000AA08630713F33618EEEF1FF7490C7FE66F
:102450004811922F90CC0CEC4D36C2E49CFD3FFF0E
:102460006AE3F9254A067CE0BD01C320A2F498E3A3
:10247000DE19C2F958FEF10BBAE2B8045A1FE0F9AE
:10248000AAF2450B75EF8DF27518D50310EF940E77
:10249000651140E4A400660D46F11210980FF2DEBB
:1024A0002BFAF00EC5E9A718D504F7D7490CDB12B3
:1024B0001B0C51F7E00CAF04D3E648100DE997026E
:1024C000B71CF4E7CD00FD0E2DEF0AE3031C230D2E
:1024D00040E55014BEF738F6A717AEF702F87C0BAC
:1024E0004B02EAF1CC051002FCFDAE0933FC27FBE0
:1024F0001BF56AFC09FFE7139A0638E2BC03AD0F2F
:102500001FF7B000300E17F696072FFBEEF0C21142
:1025100097FE51FA00FF960439F588F7C917E203D0
:10252000FDF8B9FC28F2CAFB19180C0442EFE909BE
:1025300000FFD6016B0CB2F4E6F0B0026C0365FC50
:10254000950CB1FE8BFB35070DFF99F641F3FB02AD
:10255000D6016F0D9509F7ED910A9E0813F59301C9
:10256000C0F0A8003E047008460833E8230C16FCAF
:1025700065FF331493E89EF4C309DF110D00ED08E5
:102580004FECB4EB7F270BF490F9ECFA7F0F6A0E57
:1025900042DB140519010F1DF7EFD1EE5F07E1F2E1
:1025A0005319CEE7841FD8F729EFE40F3AD80A254C
:1025B000C2FC16F9B709000270F3DA01A61D17E193
:1025C0001114D5EF04ED3F14DD072BFC0EFA331484
:1025D0006BE22213F3FF5EF637FC09FBFF1A05E9F5
:1025E0006515D5EEAB079CFE01F97AFFF9E1453799
:1025F0008DDD5A1FA4FE9EDE891DB6E47A117BE4B0
:10260000112921ED95F493297FCD1127B9E911FD09
:10261000CA1075EBE10722E83E2DB3F15400D40C4B
:1026200034E1160FE8E4D32328F65703A50EA9E2F8
:10263000FC1404EA2F11EDF5BF0C9DF864F076133D
:1026400094E4881F1FF76FF7F303CD01140356F4CA
:102650003616FEF5A4001CF1B402081832EECB0FBA
:102660001BF5D4F5A1F8DD07F50C75EFD02055E783
:1026700067F3CD00B5108A1540E78E161DD8BC0251
:102680006913BBF3D7110400B60B2CE04B05C50052
:102690004CFC0C17FFEE4E0BA3EE26FE3B019717EA
:1026A000BEF886D67F3B6DD80AF7B92652F2AC0148
:1026B00014F2871303EFEBFE3C0D6EFC9B0043010D
:1026C0003B01A0E860177100C2F9E00FCFE1C10241
:1026D000A10EBBF52409A50CF8E8A1F9181AADE381
:1026E000DC0B2325E3FCDAD5DBE7B2372FD1900FE3
:1026F000663B3EC5750276FE41F4D229F8FB76E9C9
:102700005B1E33D0F300222666E3B331FCD568EFBD
:102710005A1F7FE35E2453F112F8A8120DE630F43D
:102720007D2E55FCABDAE11E23E1DE17C40677E20D
:10273000772125DB0A0EF413E5F28908D9F2C8F3F4
:102740008F15690028F2AB1AABD9840BFA1D68D833
:10275000BF1E54019ADC780A340F40FC390B8F00FD
:10276000CDEB310904ED1A0F840DA6F4140767DFD1
:102770005C19780AA1F9A90E5EE3CAFBD6157BF7AE
:10278000A7EE631DC9EC6000211835F1AF08C1E860
:102790003D0BF60735F1900F38F66001E907B0EC14
:1027A000990BF00EFAE0BF0B9300FBEE1A26D2FF56
:1027B000B0EAB70807F048FE8C22E6EE98F912FB63
:1027C000F6F05028C5EA94FA11152ED4791A6C1D2A
:1027D00057DB410BB70A7FE6ED0C700750FD150281
:1027E00031F0F208A1F65A0DD90381EE662272D2B9
:1027F000CFFA9B2A9BE99B00BC06D3FB36EFF11F67
:1028000001FD38E45A1F03EFCEFD1B0B9CFB72FD4C
:1028100049F70D1116FDF0FA290747EB40111E107C
:1028200045E2E7119F01EFE9A10F76FF01F9D40B13
:10283000B2F940F9800C26FF710361FDFDFB33FC0A
:102840006FF682139CFE60EF441339F5A9F9551118
:1028500011EC410A2C0C7DEDFF056A0FBCEC8CF7E6
:10286000AC147BFBBF0841F762F6910828F49D0D7C
:1028700024F46F0A280853DA0525A4FF68ED97179A
:1028800008EDC3F648115302B3F0B01830F8B2E1C6
:10289000E11DA0FB67F5D40B00012BF9F5F7450B03
:1028A000CEFBB1FBC20E38F7E602C101E9F2170B0D
:1028B000530430F5CEFCF50BE9F201FCD31102F71D
:1028C000C90126FFDFFAAB039A04BC02F1F4B70A90
:1028D00050FED1ED421A7AFCD0F12B10D8F6F9F95E
:1028E00081054B01BDFCF20877F61BF586155DFBF3
:1028F00061FC3202B803EF010FF33313B6F638F67A
:10290000900E1DED4F174CFEEBE9620E51FA0001DF
:1029100087FE780A26FDFAF1C70A2A02110026016D
:10292000DFFD30F9FF045401ECFA5911E9F3DAEC58
:10293000FC1172FE61FD5B0602F8E3FF6002B5FD6B
:102940001B0B3105CFF6C901C101B70718F07AEAB0
:10295000120E83FD670A4D0EFBEF1A0F5000FCE9C3
:10296000BF0BB6F9CCF292034206560C0C0482005F
:1029700045F50AF9730B02F767F33B14EE0419EC03
:10298000001783FD91F30D123DDFA316240814D91F
:10299000D51BF70205FC4703A301A0FEAAF5ADFC79
:1029A000B5FF9826DDF261D0FB18C72080F58AEBD1
:1029B000C70A34FA01FCE7000DEB262BF20675D6A8
:1029C0009F174F03E1F1FA0784F5C9032B0F3CE38E
:1029D0004204AC2ACCDF09FC96197CE1A50EFCFF71
:1029E00026EA4922A9FBB5E62A16F303B1E70A0C49
:1029F0007007BBF1A608ECF8EDF6251909FEC9ED44
:102A00001C1BB2F907DE631DD90496F0401160EF7C
:102A10008F006111D6ECE40DAF070EE2A3044F0561
:102A20000402D80DC4F08F00C20F9BED83FAE218A8
:102A3000E8FB8FEBFE08580209FD2AFEFEF4CF0FDB
:102A4000890897EB780651104CEAB803C11602F5D5
:102A5000A20A01FA8BEA501499F625EE25189CFC7F
:102A600057EE980E0305C1012D076DEC16F9270FDF
:102A700078F44B02291AFEF213F6410C5AF88BFD3A
:102A80006803FDF8AF079E09AEF3EA035F071DEE8A
:102A9000D2FD14057E007D039CFB2506FD0E66FA23
:102AA00077F8310853EEAEF3300E93FE5A0EB000B5
:102AB000B8EC4D106D020CECE2020C0580F6BF0B79
:102AC0008C0CB9FB3604E9F2E9F3FA0A09FF35F494
:102AD000A6090F09C2FB6F0ADFFDD4F4EBFD8DF4EC
:102AE000AE09F81089F1BC028D094EF5B707000157
:102AF000A6F63605A2F205FDDD1C33FCB8EEFE0895
:102B00002AFE2BFD180430F9F2052D050BF31003F6
:102B1000340E20F3E3FC940F23F733FB150209FF77
:102B2000C407EF0033FB6C04CAFD20F47406810473
:102B3000CEFD21036AFAEFFF2D04D3F9EE0531082B
:102B4000F3EC6D015A0EE1F078098D0A9AEF3E051B
:102B500093FEB9FCCF0FC5FE9EF447032E011FFA6A
:102B6000100544FC4704BC030BF2830EAB07CDEC0D
:102B70003700F60997FEFF03150134F518044300EA
:102B80001BF70F0AB0015AF7A70336044F02A3033D
:102B9000FDF70FF6CC067AFFC1FF390787FCCEFFA1
:102BA000C4048A0159FC99F6A0FE300B9CFC7FFA04
:102BB000D80869FD83FA3A044B030D0016FC2CF784
:102BC0006C03730D3CF810034D0DC6E711009C110A
:102BD0007FFCFDF932EBEC100A206EE66EE6282051
:102BE000A20A53DCDA00311A660D2BE468ED0E23DD
:102BF000C006CCDD2A01E52078F559E7EE04062071
:102C0000EA0524C996066D2D2EEAF3EB2E17E90886
:102C100032EE2FFD2E039010DCF55BDD6224A10C5B
:102C20004BEB880E4AF424F6A81434F801E74A1E48
:102C3000380FCAD46DFFA9239B0152DF3CF92F2521
:102C400031052ED69E085029B1E823E19715412081
:102C50000DE9E3D3851C0636C5E967CA4C269B18E7
:102C60001BCC7903F025F10BBCD8A6DEE037B817F2
:102C7000C0C47006CE2875EBDCE1FB04033137FDE0
:102C8000E1C5340F82298DF38CE4840B141B1AE503
:102C90008CE09424BF1ED0DFD3E61C1AB514B1E833
:102CA0003EEFA21CF30280DDB305301F560841E160
:102CB0008DF401250AF81FE45414A2095FF21BF5F4
:102CC0006003CF2159FAB5D281186D1774DE7E01E9
:102CD000C5150DFD2AEAD3FB6B1E9E057BE522FC84
:102CE0004715AF043BE897FEB819A5F79FED2B0FEA
:102CF000F609DDF3B3F2D105E2195FF061EA3E1A9D
:102D000014066BF36AF8E10898126EE868EDBB20D0
:102D10006405B5E5170A700844FAECFA48FC441358
:102D200011FD4DE3A2084A1DE8FBA9E6B000E2163A
:102D3000E4F814F0840D89082DF053EF04184717B8
:102D400072E90CEFBA10920318F36402E6047409F6
:102D500047EAB1FBCC1ED7F807F4BDFC57042504A5
:102D6000CFF93FFF8F110FF6ACEC7115890788F68C
:102D70003CF8EF000A0CD2FCD0F59010C6FBCDEE6B
:102D8000240A6707B4033DF249F966101100DFFA1F
:102D9000D505690177FA4FF0E10897145FF3AFF0BA
:102DA0007807B7095DFC8CF74E06450B9BEA22FDC0
:102DB0001D1733FC03F12A025F06D00745F78CF894
:102DC000A41249F7E1F4A3035E0C1D0270F0A703FF
:102DD000730C30F5ECF9410AAF0477F824F4900D48
:102DE0003203B7F043FF312FC903E1C96CF0281F4C
:102DF000C22424DD9FEDD30F940D2D04EADA8D0A51
:102E0000552574DE45F70B1F11EB6002F2070EF734
:102E10004D0DB4ECEF02141BB0ED74F0E6016A1135
:102E2000F30339F24B03820099F4F606A90F44FC30
:102E30008200A3ED0306F812DDF35B0802F8D0F47C
:102E4000D90583FCE617C2F9ECE4B01604012BFBAC
:102E5000280A95F4E3FE20063AEF58145B0866E66C
:102E6000C806B0FFFF03430219FFE7001AFC7AFC13
:102E7000840A5401F1F6DBFD55F98C0F79012CF72A
:102E8000A206E7FF3DF45304300E0C02D4F2F6F331
:102E90009D0E470161FFEE05AAF5E605C3F7A80000
:102EA000681925EED1EFBF0820086DFF9B003BFE9F
:102EB00022FFCAFD63F20513390B19EE23FB5302FF
:102EC0006B09110116F99A071BF9C7F72D050B06B7
:102ED000FB052CF55EF79D0DA302A6F3C80863065B
:102EE000BBF554FD80084E0730F9F1F5D009C1FD5E
:102EF000BEF98E0469FD7C0BC7F4CFF7F715BAF65F
:102F000014F2520CD503E200C2FC0DFC670BA5FBCA
:102F10006FF65E0B680351F848FA1004340FC4F1E1
:102F20005EF9C809DBFB190186FF8E05C900FEF3B7
:102F30009701941027FB80F4B3069B00ACFF8BFB3A
:102F4000B001020D7DF04DF9490D03067EFE10F132
:102F5000D9068E0567F46806740945F5A5F881075A
:102F60006707790334F551FB9D0D2FFA6AF9B20D0D
:102F700072FC34F912FA5609BF0918F298FB3E04A4
:102F80009A08B9FDC6FC2D0554FFDDF28104331308
:102F9000BAF928F2B400CC0987FE83FD100571014F
:102FA000D0F383FD7B0FD90388F8DDEF1309DC0C28
:102FB0003CF88105D2FCADFC2BFDB00295092BFC41
:102FC000D3FB40F9D409080395F5DE027C08C2FB67
:102FD00025EF1B0DFA0A4EF52101F5F9DD043D0838
:102FE00030F7890526FF34F743038D0912FCE0F51D
:102FF0003605A7045CFFE8F99B009A0594FBF3FFF4
:10300000DAFFEE07B40121EC7F0E350863F5790392
:103010003BFDC005E3FB62FA9A067C076FF891F668
:103020000E0CEBFD55FBDD047E0187FE94FAB40423
:10303000F700ADFDD6016DFE2105ECFAFDFAF208B0
:1030400083FCECF90F08D80973F713F33507D103A4
:103050001AFE740558001AFB98FCCEFEC0069607AF
:10306000E4F7ECF936028E04AC02B9FBCEFFA4FE05
:1030700051FAA206630683FB15FE26FD1308CD0355
:10308000A2F54303CC065AF438F8E40D060B6AF8AF
:10309000A7EEA3033D0AE60204022CF4DBFD96042E
:1030A000D601FE09A5FA8DF19B033109190161FED4
:1030B00040F8D007340D77E382FF4121CCF27EE95E
:1030C000BB09880B65FD7EFFD3F8C5FE4607A9FA4C
:1030D0008905950981F1ECF8C807BC032809BEF8F9
:1030E0009AF0E5091C0622FC5F09E9F66BF3BF0ABA
:1030F0001002F605E7FE08EFD4089109E9F6AF04DF
:10310000D50680F309FDF2059F010E0E1BF5B4EE06
:10311000C20E9B038DF5C807790436EE8D06240890
:1031200090FBC9044EF5D102AE0D06F8F8FE8106FB
:103130001FF797FE7405E2014B05BFF387FA5E0E99
:1031400000FE76FD0804F5F52AFF810726FED0096A
:10315000F0FB3FECD0085D135EF6D3F8DC0966F9AE
:1031600053042FFC250244103FEC56F68908E5066F
:1031700047FF76FC22FF66FB0306B8052006B1FA7E
:103180001EE899097F2494FC37E67BFB4B0520065B
:10319000A8FE4701D10246EFA0FCB111A304BFF382
:1031A0009CFBE1092FFCE7FE7501C1014A0AF4E925
:1031B0009B004F1935F165FCBB088BFB27FC040015
:1031C000C80586036BF5B2F82B0FA4FF3CFBA801E2
:1031D0005DFD5B072BFA76FF5F0538F93605FF04C6
:1031E000A1F6CEFE8E018E026C07D4F372FA3D0B6F
:1031F0009202E7FC66F7D502170CBEF933FE7101A7
:10320000FCFDEE0550FCBDFF920448FB00FE2905C5
:10321000CAFC43FFC10172FB3908F0FAF5F9510D00
:1032200083F9BEFA960533FF8D061EFC1AFA89074C
:10323000150137FCF8FF9A042FFE77FA1100A70357
:10324000100398F9CAFC1F0B67089BECE9F62918D4
:103250004F0374F248FBFF055F05F4FB1900D5042A
:1032600072FD98FAB0FFFF0247016EFB7807A4FFDA
:10327000FAF326FFA414EB0152DFC6107D18B6E462
:103280001CF4512401FDC8DD55105D102AFE2AEB07
:10329000E4F8DB26DDF0DED93C26D7118EDAFCFD22
:1032A000C515C405EBFEA8E8F10C660FAADF961859
:1032B000140458EC9A0893FD000010054702A6F18B
:1032C000800AB5FBF0F94717CFF717F51D0186FF08
:1032D000CC07F608AFF2F5F8230DA5FB2103F302A6
:1032E00060EEA4136C034DE27A13D00A68F0D9079C
:1032F000D2FC23F7331334F578F55C162DF12AFF51
:103300009E05E8F89108B1FA9BFF700547FF52F45B
:10331000730D7005EEEF5F08CAFB10069CFDD7FB2E
:10332000520AF4FA61FE33FE3506D4F6E602770E51
:103330009BED4F029E09DBFA8BFCC5FEB7064B02E4
:103340005EF805FC8B1034FAB8EBB915100353F096
:103350006003DFFCFE0ACD00FEF41C05E106C1FDA2
:1033600024F4E21761FF4EDDD409FC132D0556F459
:103370007CF50DFFAA0AFCFD4B014D0EB9E8B5FB2B
:10338000280C6306D905EBECDBFBBA107BF9CD0109
:10339000C212BCEEBCEE3E07B20CAA0CE5F53EF044
:1033A000FB0509FF3E07C503630640F996DB1A25B6
:1033B000ED0AB7F0EA06B7F03109B6F8950A10053C
:1033C00005FC44FC7AE9D41DE70078F51501CFFA35
:1033D000A60B0BF2471599F808EB6D14F2F0E71302
:1033E000D80A28E183FDD00A3908D2FDEE0753F14F
:1033F00053ED7518AC012C09A5F787E7221143019D
:10340000F10B4AF42E034E0966E2A71743FE37FD7F
:103410008E011CF0F90FF1F8EA047902BDFEDE031B
:1034200064EFBE106C0545F68BFD84F8270FF0FCA9
:103430007C09E4F6BDEAC01AEAF01B0E5F052BE535
:10344000A50DBDFE5B08F0FA5704E0F849F77E12BF
:1034500017F8730C18F295F61A0FD6FDEA0373F9F4
:10346000D40A02F4B6F8F90E27FA4E0BD0F1DFFABF
:103470000A0F87FADA0061FCE507E0F9A9FB830F80
:1034800098FBFDF9E8F84109E602DFFC520757EE28
:103490004703A70569FE620FA2F140F8B002A4003D
:1034A0002C09EFFEAF0496F18BFDED0C8A00180499
:1034B00052F35401A4003F02A70412F93A0539F56A
:1034C0004E08460874F0E508A8FD50FF1B0A40F9B5
:1034D000150216FB72FC32043E03A70634F840F8CE
:1034E00011FD200A2E0158006002F3ED1B0B530260
:1034F00015FFC70AD9F0A4FF4B045F05930145F8F7
:10350000290412FCE6010C0451FBDAFF6D0015FEE4
:10351000A4FE7407C6FA48FC9A0591F65707B80549
:1035200059F9850462F93A03CD028F00D104E1F024
:10353000B708030462F99A08E3FE52F4E7FC161296
:103540001AFA080172FD42F1541383FC76FC5B0801
:10355000ECF9F9F904022F0FBBF5CFF85F0801FB76
:10356000E10758FEA1FA4B0326FEC6FD8A02C30AF4
:103570005BF237FDF6082BFC310727FCCAFECEFBB9
:10358000C5FF9A08A5FAB3053200C8F24204BB0988
:1035900005FADE01D5027CF4A206B30673F65306E3
:1035A000B9FD17F8A50C93FFA5F922FE36024B04CE
:1035B00082FEEF0188F91EFFC40405FE35062600D1
:1035C000A5F73BFE3108C9011AFA4F043FFD26FE5C
:1035D0005C0208028603A1F9370027FBA3044F050C
:1035E0006FF64A0993FD56F62103670704FF2AFE8A
:1035F00065FFB6F5B3076804F6063F0068ED1D04E5
:10360000AF0782FF5DFE61FEB5FF5DFC9A0478099D
:1036100002F6BAFA1C063BFF250398FC22FE96052B
:10362000CEFC4CFBC007E6016AF97AFFF3012006E5
:1036300051FA48FBE2044701B0FF8F0093FD51F8B7
:10364000950A310861FDB9FE10F087FC6114E204AF
:10365000F30189F33BE747185B0644FD0E0F50EB7F
:10366000ABF18909380CA208B0021EE8A9FBAA0B2D
:10367000ADFDA013E4F8C3F32FFACAFC08195800F3
:10368000F1F406F700000000000000000000000058
:10369000000000000000000000000000000000002A
:1036A000000000000000000000000000000000001A
:1036B000000000000000000000000000000000000A
:1036C00000000000000000000000000000000000FA
:1036D00000000000000000000000000000000000EA
:1036E00000000000000000000000000000000000DA
:1036F00000000000000000000000000000000000CA
:1037000000000000000000000000000000000000B9
:1037100000000000000000000000000000000000A9
:0C3720000000000000000000000000009D
:04000005080000ED02
:00000001FF
