:020000040800F2
:100000000005002001010008250100082701000863
:10001000290100082B0100082D0100080000000044
:100020000000000000000000000000002F01000898
:10003000310100080000000033010008350100080C
:1000400037010008370100083701000837010008B0
:1000500037010008370100083701000837010008A0
:100060003701000837010008370100083701000890
:100070003701000837010008370100083701000880
:100080003701000837010008370100083701000870
:100090003701000837010008370100083701000860
:1000A0003701000837010008370100083701000850
:1000B0003701000837010008370100083701000840
:1000C0003701000837010008370100083701000830
:1000D0003701000837010008370100083701000820
:1000E000370100083701000837010008DFF80CD09D
:1000F00000F02CF8004800477902000800050020B5
:100100000D488047DFF83400016841F4E0210160C8
:10011000BFF34F8FDFF82800DFF8281001600A488E
:1001200000477047FEE7FEE7FEE7FEE7FEE7FEE773
:10013000FEE7FEE7FEE7FEE72301000824ED00E00E
:100140000CED00E00003FA05ED000008064C074D39
:1001500006E0E06840F0010394E807009847103497
:10016000AC42F6D3FFF7C6FFF80200080803000808
:1001700070B5194C8320206000256560A560174884
:100180006060012000F02EF8616808436060144947
:100190000D60086840F002000860206840F480307C
:1001A000206020688003FCD5206840F080702060CB
:1001B00020688001FCD5606820F003006060606802
:1001C00040F002006060606840F480006060086891
:1001D00040F01000086070BD0010024000841D0057
:1001E00000200240012804D0B0F5807F03DD01210A
:1001F00002E000202CE00021802801DD012200E047
:1002000000220A44402801DD012100E000210A44C7
:10021000102801DD012100E000210A44082801DD49
:10022000012100E000210A44042801DD012100E051
:1002300000210A44022801DD012100E000211144CF
:10024000012801DD012000E000200844C01D00015C
:10025000702800D10020704702E008C8121F08C1B2
:10026000002AFAD170477047002001E001C1121F37
:10027000002AFBD170470000FFF77AFF002407E057
:10028000E1B2054800F00CF8044941F82400641C70
:10029000402CF5DB00BFFEE708030008000000204B
:1002A0000FB50A680168124808E00368114805E0C4
:1002B000034403FB03F3BDE80F4070472DE9F05FF3
:1002C0004FF000044FF0000C0CFB02F707F03F0763
:1002D00030F917B031F91C300BFB03440CF1010C61
:1002E0004FF04008C445EFD12046BDE8F05F7047AD
:1002F00088030008080400088804000800000020A3
:100300000005000068020008FF0FF60FD90FA80FC4
:10031000640F0E0FA70E2F0EA80D130D720CC50B38
:10032000100B530A9009C908000837077006AD057D
:10033000F0043B048E03ED025802D1015901F20092
:100340009C00580027000A0000000A0027005800FF
:100350009C00F2005901D1015802ED028E033B04CA
:10036000F004AD05700637070008C9089009530A64
:10037000100BC50B720C130DA80D2F0EA70E0E0F30
:10038000640FA80FD90FF60FFF7F627F8A7D7D7AF9
:100390004276E3706E6AF262825A34511D47573CCE
:1003A000FC302825F9188C0C000074F307E7D8DA24
:1003B00004CFA9C3E3B8CCAE7EA50E9D92951D8F48
:1003C000BE89838576829E8000809E80768283852A
:1003D000BE891D8F92950E9D7EA5CCAEE3B8A9C3B4
:1003E00004CFD8DA07E774F300008C0CF91828253D
:1003F000FC30573C1D473451825AF2626E6AE370FA
:1004000042767D7A8A7D627F00008C0CF91828255F
:10041000FC30573C1D473451825AF2626E6AE370D9
:1004200042767D7A8A7D627FFF7F627F8A7D7D7AD8
:100430004276E3706E6AF262825A34511D47573C2D
:10044000FC302825F9188C0C000074F307E7D8DA83
:1004500004CFA9C3E3B8CCAE7EA50E9D92951D8FA7
:10046000BE89838576829E8000809E807682838589
:10047000BE891D8F92950E9D7EA5CCAEE3B8A9C313
:0804800004CFD8DA07E774F39A
:04000005080000ED02
:00000001FF
