:020000040800F2
:10000000080400200101000825010008270100085C
:10001000290100082B0100082D0100080000000044
:100020000000000000000000000000002F01000898
:10003000310100080000000033010008350100080C
:1000400037010008370100083701000837010008B0
:1000500037010008370100083701000837010008A0
:100060003701000837010008370100083701000890
:100070003701000837010008370100083701000880
:100080003701000837010008370100083701000870
:100090003701000837010008370100083701000860
:1000A0003701000837010008370100083701000850
:1000B0003701000837010008370100083701000840
:1000C0003701000837010008370100083701000830
:1000D0003701000837010008370100083701000820
:1000E000370100083701000837010008DFF80CD09D
:1000F00000F02CF800480047A10300080804002085
:100100000D488047DFF83400016841F4E0210160C8
:10011000BFF34F8FDFF82800DFF8281001600A488E
:1001200000477047FEE7FEE7FEE7FEE7FEE7FEE773
:10013000FEE7FEE7FEE7FEE72301000824ED00E00E
:100140000CED00E00003FA05ED000008064C074D39
:1001500006E0E06840F0010394E807009847103497
:10016000AC42F6D3FFF7C6FFE4030008040400081E
:1001700070B5194C8320206000256560A560174884
:100180006060012000F02EF8616808436060144947
:100190000D60086840F002000860206840F480307C
:1001A000206020688003FCD5206840F080702060CB
:1001B00020688001FCD5606820F003006060606802
:1001C00040F002006060606840F480006060086891
:1001D00040F01000086070BD0010024000841D0057
:1001E00000200240012804D0B0F5807F03DD01210A
:1001F00002E000202CE00021802801DD012200E047
:1002000000220A44402801DD012100E000210A44C7
:10021000102801DD012100E000210A44082801DD49
:10022000012100E000210A44042801DD012100E051
:1002300000210A44022801DD012100E000211144CF
:10024000012801DD012000E000200844C01D00015C
:10025000702800D1002070470121814001480160D1
:1002600070470000140C01400121814001480160E9
:1002700070470000100C0140F0B53B4E3B4CB042C3
:1002800003D1A66946F00406A661394EB04203D1F7
:10029000A66946F00806A661364EB04203D1A669AB
:1002A00046F01006A661344EB04203D1A66946F06E
:1002B0002006A661314EB04203D1A66946F0400641
:1002C000A66100240F2900DD0124692A01D0492AF2
:1002D00002D1032B00D10124032B00DD0124692A64
:1002E00006D0492A04D06F2A02D04F2A00D0012418
:1002F000692A01D0492A00D100256F2A01D04F2A4E
:1003000000D1012503260222082915DA076802EB2D
:10031000810206FA02FC27EA0C070760076893408F
:100320001F430760026889008E40B2430260026882
:100330008D402A43026015E00839476802EB8102CC
:1003400006FA02FC27EA0C074760476893401F4300
:100350004760426889008E40B243426042688D40E7
:100360002A4342602046F0BD0008014000100240D0
:10037000000C014000100140001401400018014031
:1003800002E008C8121F08C1002AFAD1704770475E
:10039000002001E001C1121F002AFBD170470000BC
:1003A000FFF7E6FE00236F2201210748FFF764FFF5
:1003B00009E000F00BF80120FFF756FF00F006F807
:1003C0000120FFF749FFF4E7000C0140034804490E
:1003D0000160016801390160FBD170470000002015
:1003E000A0BB0D0004040008000000200400000071
:1003F0008003000808040008040000200404000032
:08040000900300080000000059
:04000005080000ED02
:00000001FF
